:03000000020822D1
:0C08220078FFE4F6D8FD7581200208691B
:10055F0060946000000000030000000000000064D1
:10056F00000000210000001E00000001000000003C
:10057F00000000000000000000000000000000C8A4
:10058F00000002D0000000B90000000500000003C9
:10059F000000000100000001000000020000001038
:1005AF000000001000000004000000000000000C1C
:1005BF000000005800000001000000000000065875
:1005CF000000000000000001000000010000000F0B
:1005DF0000000002000000060000000600000010EE
:1005EF00000000CC00000001609460940000000344
:1005FF0000000000000000000000000000000000EC
:10060F0000000000000000000000000000000000DB
:10061F0000000000000000010000000000000007C3
:10062F0000000010000000000000000000000000AB
:10063F0000000000000000000000000000000000AB
:10064F00000000000000000000000000000000009B
:10065F00000000000000000000000000000000008B
:10066F00000000000000000000000000000000007B
:10067F00000000000000000000000000000000006B
:10068F00426128110042612A290042612C53244201
:09069F00612E51FF42613035006B
:04094C00120700226C
:0608AE0090613B12071AE5
:1008B40090613F1207260000000090613BE0FCA31A
:1008C400E0FDA3E0FEA3E0FFA3E0F8A3E0F9A3E0CA
:1008D400FAA3E0FBC31206EF502190613FE0FCA3B2
:1008E400E0FDA3E0FEA3E02401FFE43EFEE43DFDC1
:0B08F400E43CFC90613F12071A80BF3B
:0108FF0022D6
:10090000908805E090613AF0E054FBF0908805F0A3
:100910007F017E007D007C001208AE90613AE044C9
:1009200004F0908805F07F017E007D007C001208B5
:01093000AE18
:0109310022A3
:10093200908805E0FEEF6006EE4402FE8004EE546D
:09094200FDFEAF06908805EEF001
:01094B002289
:10076F00906133EFF0A3ECF0A3EDF0A3EBF0A3EA6D
:04077F00F0A3E9F00A
:10078300E4FF120932120900906133E0908800F00F
:10079300906139E06050906134E0FEA3E0FD908801
:1007A30000F0EEFDF0E4F0FFFED3906135E09F90A2
:1007B3006134E09E401D906136E0FBA3E0FAA3E0C4
:1007C300F98F828E831206C2908800F00FBF00015A
:1007D3000E80D6E4908800F0F0F0F0D2813083FDF3
:1007E300C28112090022906136E0FBA3E0FAA3E084
:1007F300F91206A9908800F0906134E07004A3E038
:100803006402700A9000011206C2908800F0E4901E
:0E0813008800F0F0D2813083FDC2811209000E
:0108210022B4
:010950002284
:10000300E4906132F0758E55759504D2AFC2A8C2E3
:10001300AAF590C281C280C282C28790880404F08C
:10002300FB7A807900906000E0FCA3E0FDA3E0FE92
:10003300A3E0FF12094C7A807904906004E0FCA3EA
:10004300E0FDA3E0FEA3E0FF12094C7A807908905B
:100053006008E0FCA3E0FDA3E0FEA3E0FF12094C6F
:100063007A80790C90600CE0FCA3E0FDA3E0FEA392
:10007300E0FF12094C7A807910906010E0FCA3E055
:10008300FDA3E0FEA3E0FF12094C7A80791490608F
:1000930014E0FCA3E0FDA3E0FEA3E0FF12094C7A09
:1000A300807918906018E0FCA3E0FDA3E0FEA3E0D4
:1000B300FF12094C7A80791C90601CE0FCA3E0FDE0
:1000C300A3E0FEA3E0FF12094C7A80792090602020
:1000D300E0FCA3E0FDA3E0FEA3E0FF12094C7A805D
:1000E3007924906024E0FCA3E0FDA3E0FEA3E0FFFD
:1000F30012094C7A807928906028E0FCA3E0FDA3E4
:10010300E0FEA3E0FF12094C7A82790090602CE0B4
:10011300FCA3E0FDA3E0FEA3E0FF12094C7A827981
:1001230004906030E0FCA3E0FDA3E0FEA3E0FF1237
:10013300094C7A827908906034E0FCA3E0FDA3E0E7
:10014300FEA3E0FF12094C7A82790C906038E0FC40
:10015300A3E0FDA3E0FEA3E0FF12094C7A8279102D
:1001630090603CE0FCA3E0FDA3E0FEA3E0FF1209E6
:100173004C7A827914906040E0FCA3E0FDA3E0FE9A
:10018300A3E0FF12094C7A827918906044E0FCA343
:10019300E0FDA3E0FEA3E0FF12094C7A82791C90F4
:1001A3006048E0FCA3E0FDA3E0FEA3E0FF12094CDE
:1001B3007A82792090604CE0FCA3E0FDA3E0FEA3EB
:1001C300E0FF12094C7A827924906050E0FCA3E0AE
:1001D300FDA3E0FEA3E0FF12094C7A827928906028
:1001E30054E0FCA3E0FDA3E0FEA3E0FF12094C7A78
:1001F30082792C906058E0FCA3E0FDA3E0FEA3E02D
:10020300FF12094C7A82793090605CE0FCA3E0FD38
:10021300A3E0FEA3E0FF12094C7A82793490606078
:10022300E0FCA3E0FDA3E0FEA3E0FF12094C7A8209
:100233007938906064E0FCA3E0FDA3E0FEA3E0FF57
:1002430012094C7A82793C906068E0FCA3E0FDA33C
:10025300E0FEA3E0FF12094C7A82794090606CE0E3
:10026300FCA3E0FDA3E0FEA3E0FF12094C7A83792F
:1002730000906070E0FCA3E0FDA3E0FEA3E0FF12AA
:10028300094C7A837904906074E0FCA3E0FDA3E059
:10029300FEA3E0FF12094C7A837908906078E0FCB2
:1002A300A3E0FDA3E0FEA3E0FF12094C7A83790CDF
:1002B30090607CE0FCA3E0FDA3E0FEA3E0FF120955
:1002C3004C7A837910906080E0FCA3E0FDA3E0FE0C
:1002D300A3E0FF12094C7A837914906084E0FCA3B5
:1002E300E0FDA3E0FEA3E0FF12094C7A83791890A6
:1002F3006088E0FCA3E0FDA3E0FEA3E0FF12094C4D
:100303007A83791C90608CE0FCA3E0FDA3E0FEA35C
:10031300E0FF12094C7A837920906090E0FCA3E01F
:10032300FDA3E0FEA3E0FF12094CE4908804F07AF9
:10033300847900906094E0FCA3E0FDA3E0FEA3E0D9
:10034300FF12094C7A847904906098E0FCA3E0FDE5
:10035300A3E0FEA3E0FF12094C7A84790890609C25
:10036300E0FCA3E0FDA3E0FEA3E0FF12094C7A84C6
:10037300790C9060A0E0FCA3E0FDA3E0FEA3E0FF06
:1003830012094C7A8479109060A4E0FCA3E0FDA3E9
:10039300E0FEA3E0FF12094C7A8479149060A8E090
:1003A300FCA3E0FDA3E0FEA3E0FF12094C7A8479ED
:1003B300189060ACE0FCA3E0FDA3E0FEA3E0FF1215
:1003C300094C7A84791C9060B0E0FCA3E0FDA3E0C3
:1003D300FEA3E0FF12094C7A8479209060B4E0FC1C
:1003E300A3E0FDA3E0FEA3E0FF12094C7A84792485
:1003F3009060B8E0FCA3E0FDA3E0FEA3E0FF1209D8
:100403004C7A8479289060BCE0FCA3E0FDA3E0FE75
:10041300A3E0FF12094C7A84792C9060C0E0FCA31E
:10042300E0FDA3E0FEA3E0FF12094C7A86798090F9
:1004330060C4E0FCA3E0FDA3E0FEA3E0FF12094CCF
:100443007A8679849060C8E0FCA3E0FDA3E0FEA374
:10045300E0FF12094C9088057401F0D2823084FDCC
:100463007FAC7E0D7D007C001208AE7FC47E097DCB
:10047300007C001208AEC2823085FDD2823084FD3A
:100483007FE87E037D007C001208AE7B017A6179F0
:100493002C9061397401F07D027C007F2912076F73
:1004A3007FF47E017D007C001208AE7B017A6179C6
:1004B3002E9061397401F07D027C007F2912076F51
:1004C3007FF47E017D007C001208AE7B017A6179A6
:1004D30028E4906139F07D02FC7F0512076F7FF4F9
:1004E3007E017D007C001208AE7B017A61792AE4EB
:1004F300906139F07D02FC7F0512076FD280A285DF
:10050300920030855220004BC2807FF47E017D0033
:100513007C001208AE7B017A617928E4906139F09E
:100523007D02FC7F0512076F7FF47E017D007C0056
:100533001208AE7B017A61792AE4906139F07D0279
:10054300FC7F0512076F7FF47E017D007C0012089B
:0B055300AED280D20080ABC20080A7B7
:01055E00227A
:10082E00020003E493A3F8E493A34003F68001F2DD
:10083E0008DFF48029E493A3F85407240CC8C333CB
:10084E00C4540F4420C8834004F456800146F6DF9A
:10085E00E4800B010204081020408090055FE47EC6
:10086E00019360BCA3FF543F30E509541FFEE4938F
:10087E00A360010ECF54C025E060A840B8E493A356
:10088E00FAE493A3F8E493A3C8C582C8CAC583CA81
:10089E00F0A3C8C582C8CAC583CADFE9DEE780BE39
:0106A8000051
:1006A900BB010689828A83E0225002E722BBFE024F
:0906B900E32289828A83E4932282
:1006C200BB010CE58229F582E5833AF583E02250ED
:1006D20006E92582F8E622BBFE06E92582F8E22237
:0D06E200E58229F582E5833AF583E4932251
:1006EF00EB9FF5F0EA9E42F0E99D42F0E89C45F061
:0106FF0022D8
:10070000BB010789828A8302071A5005E9F80207AC
:0A07100057BBFE05E9F8020763225B
:0C071A00ECF0A3EDF0A3EEF0A3EFF02252
:10072600A8828583F0D083D08212073D12073D123E
:10073600073D12073DE473E493A3C583C5F0C58363
:10074600C8C582C8F0A3C583C5F0C583C8C582C81D
:010756002280
:0C075700ECF608EDF608EEF608EFF622CE
:0C076300ECF208EDF208EEF208EFF222D2
:00000001FF
