:030000000214FFE8
:0C14FF0078FFE4F6D8FD75810702154661
:1000030063C062D0000000E0000000E1000000E2F5
:10001300000000E3000000E4000000E5000000E64B
:10002300000000E7000000E8000000E9000000EA2B
:10003300000000EB000000EC000000ED000000EE0B
:10004300000000EF000000C0000000C1000000C27B
:10005300000000C3000000C4000000C5000000C68B
:10006300000000C7000000C8000000C9000000CA6B
:10007300000000CB000000CC000000CD000000CE4B
:10008300000000CF000000D0000000D1000000D22B
:10009300000000D3000000D4000000D5000000D60B
:1000A300000000D7000000D8000000D9000000DAEB
:1000B300000000DB000000DC000000DD000000DECB
:1000C300000000DF000000800000008100000082CB
:1000D300000000830000008400000085000000860B
:1000E3000000008700000088000000890000008AEB
:1000F3000000008B0000008C0000008D0000008ECB
:100103000000008F000000900000009100000092AA
:10011300000000930000009400000095000000968A
:100123000000009700000098000000990000009A6A
:100133000000009B0000009C0000009D0000009E4A
:100143000000009F000000A0000000A1000000A22A
:10015300000000A3000000A4000000A5000000A60A
:10016300000000A7000000A8000000A9000000AAEA
:10017300000000AB000000AC000000AD000000AECA
:10018300000000AF000000B0000000B1000000B2AA
:10019300000000B3000000B4000000B5000000B68A
:1001A300000000B7000000B8000000B9000000BA6A
:1001B300000000BB000000BC000000BD000000BE4A
:1001C300000000BF0000000000000001000000026A
:1001D300000000030000000400000005000000060A
:1001E3000000000700000008000000090000000AEA
:1001F3000000000B0000000C0000000D0000000ECA
:100203000000000F000000100000001100000012A9
:100213000000001300000014000000150000001689
:100223000000001700000018000000190000001A69
:100233000000001B0000001C0000001D0000001E49
:100243000000001F00000020000000210000002229
:100253000000002300000024000000250000002609
:100263000000002700000028000000290000002AE9
:100273000000002B0000002C0000002D0000002EC9
:100283000000002F000000300000003100000032A9
:100293000000003300000034000000350000003689
:1002A3000000003700000038000000390000003A69
:1002B3000000003B0000003C0000003D0000003E49
:1002C3000000003F00000040000000410000004229
:1002D3000000004300000044000000450000004609
:1002E3000000004700000048000000490000004AE9
:1002F3000000004B0000004C0000004D0000004EC9
:100303000000004F000000500000005100000052A8
:100313000000005300000054000000550000005688
:100323000000005700000058000000590000005A68
:100333000000005B0000005C0000005D0000005E48
:100343000000005F00000060000000610000006228
:100353000000006300000064000000650000006608
:100363000000006700000068000000690000006AE8
:100373000000006B0000006C0000006D0000006EC8
:100383000000006F000000700000007100000072A8
:100393000000007300000074000000750000007688
:1003A3000000007700000078000000790000007A68
:1003B3000000007B0000007C0000007D0000007E48
:1003C3000000007F608066930000001F00000000B3
:1003D30000000010000000180000001C0000000EC8
:1003E30000000007000000130000000900000004E3
:1003F30000000002000000110000000800000014CB
:100403000000000A000000150000001A0000001D93
:100413000000001E0000000F000000170000001B7A
:100423000000000D000000160000000B0000000596
:1004330000000012000000190000000C000000067C
:1004430000000003000000015067130000000100DA
:1004530000000200000004000000084262A4B00093
:100463004462A6B30000064262AAB4004662ACB678
:1004730033DB8002004862B2B8573D191E0A505060
:100483004862BAB96F3D283C14C8C84862C2BAB5BD
:1004930033416423A0A04362CABB14144362CDBC9E
:1004A3003732436690BD6432426000BE0442601638
:1004B300C000602E605BC1044800002615190B6361
:1004C300D2D99A73EFBDE75C6B934D22188B2A4107
:1004D3000000000000000000004002221B06030091
:1004E30007FF00015860B1C201F870096F120C10C8
:1004F30000083000000000000020024300000060FC
:100503003F60D6C387D87D87D0000000000043A496
:100513003A000044444400000101032800010001A3
:100523000000190019000000000000000000000096
:1005330000000000320032005A02320032005A0238
:100543004000556143C47000000011110000000217
:1005530002310100000002010101486196C5080053
:100563000000007000604061A6C65F2D2D07540790
:1005730054010201020707000007070F11075B0080
:100583005B5BC2C20000000000000000000000002E
:100593000000000000000000000000000000000058
:1005A300000000000000000000602761FFC7001F7B
:1005B3003043525C72808B95454F5C707985909384
:1005C30097001F3043525C72808B95454F5C707966
:1005D3008590939760386231C80000000000FC00EA
:1005E30000000000FC0000000000FC000000000010
:1005F300FC0000000000FC0000000000FC00000004
:100603000000FC0000000000FC0000000000FC00F3
:10061300546002C90000000000FC0000000000FC60
:100623000000000000FC00602C602FCA1CFCFCFCD6
:1006330000000000000000000000000000000000B7
:1006430000000000000000000000000000000000A7
:10065300000000000000005C6095CBFFFFFFFF0F70
:10066300000800010031F040080000000000000015
:100673000000000000004260D4CC026027611CCD62
:10068300108037C037C05C0219191111D8D8D8D8D7
:1006930001000000320032005D02323201330033C8
:1006A300005E023232AF5A617CCE5D404953595EDF
:1006B30063686E747E8A98A8BBD0FF04000404426A
:1006C30000695A4361A3CF4A1D5261EDD03357D419
:1006D30031011010101919000000000000004262DF
:1006E3002FD10060206271D210000010750F032516
:1006F30020000000000000000004000000000000D3
:1007030000000000000000576018D31B3BBB777745
:1007130077BBB33300006D6EC7C733BBF2FDC60BA7
:100723000748608DD4000000000000004860CCD56D
:10073300030000022B022B42611AD6C16022615AC8
:10074300D7F6FF03054124801FC71F1B000C07209A
:1007530000000000000C001F00FC0000AA677E5D83
:1007630006004361A0D920144561E8DD3006236506
:1007730045622ADE003FFF9046626BE700000046B9
:1007830061426291EA1F446089EE4151004360C9AE
:10079300F100004561152B0000086F426158B0035A
:1007A30042619ED6014261E6B00342622853284269
:1007B3006269550045629330000002A745629A2A98
:1007C3000000043745629F2B0000086F4262261128
:0607D300004262982900BB
:0417B4001211DB2211
:06165D0090673C1211F53C
:101663009067401212010000000090673CE0FCA369
:10167300E0FDA3E0FEA3E0FFA3E0F8A3E0F9A3E00D
:10168300FAA3E0FBC31211CA5021906740E0FCA308
:10169300E0FDA3E0FEA3E02401FFE43EFEE43DFD04
:0B16A300E43CFC9067401211F580BF92
:0116AE002219
:061467009067321211F53E
:10146D0090673612120100000000906732E0FCA375
:10147D00E0FDA3E0FEA3E0FFA3E0F8A3E0F9A3E005
:10148D00FAA3E0FBC31211CA506790673A1212011A
:10149D0000000000E47FA7FEFDFC90673AE0F8A392
:1014AD00E0F9A3E0FAA3E0FBC31211CA5021906743
:1014BD003AE0FCA3E0FDA3E0FEA3E02401FFE43E3F
:1014CD00FEE43DFDE43CFC90673A1211F580C590B9
:1014DD006736E0FCA3E0FDA3E0FEA3E02401FFE4FA
:1014ED003EFEE43DFDE43CFC9067361211F502141E
:0114FD007777
:0114FE0022CB
:10173D00908802E090673BF0E054FBF0908802F057
:10174D007F017E007D007C0012165D90673BE044BA
:10175D0004F0908802F07F017E007D007C0012165F
:01176D005D1E
:01176E002258
:0D179800908802E0FF54F7FFF04408FFF0D6
:0117A5002221
:0D17A600908802E0FF54EFFFF04410FFF0C8
:0117B3002213
:10176F00908802E0FEEF6006EE4402FE8004EE5425
:09177F00FDFEAF06908802EEF0B9
:01178800223E
:1013BF00906732EFF0A3ECF0A3EDF0A3EBF0A3EA0C
:0413CF00F0A3E9F0AE
:1013D30012173D906732E0908800F0906738E06024
:1013E3004D906733E0FEA3E0FD908800F0EEFDF042
:1013F300E4F0FFFED3906734E09F906733E09E40B4
:101403001D906735E0FBA3E0FAA3E0F98F828E839A
:1014130012102B908800F00FBF00010E80D6E490CD
:101423008800F0F0F0F0D2813083FDC28122906712
:1014330035E0FBA3E0FAA3E0F9121012908800F064
:10144300906733E07004A3E06402700A9000011215
:10145300102B908800F0E4908800F0F0D281308364
:03146300FDC28146
:011466002263
:10125600E4906748F07F0112176F12173D90674CB4
:10126600740CF0A374A8F02401906747F0E4340CE2
:10127600906746F0E4906744F0A3F0906744E0FE80
:10128600A3E0FFC39470EE940840030213BEC3EFBD
:10129600941CEE94025012E4906749F090674B74E8
:1012A600FFF0E490674AF08042C3EF9438EE94046E
:1012B6005011E4906749F090674BF090674A74FFCD
:1012C600F08028C3EF9454EE94065010906749744A
:1012D600FFF090674BF090674AF0800F9067497473
:1012E600FFF0E490674BF090674AF012173D908844
:1012F600007439F0906746E0FEA3E0FD908800F0A8
:10130600EEFDF0E4F0906748E06008908800743CD9
:10131600F0800C908800742CF09067487401F0E41B
:10132600FFFED390674DE09F90674CE09E4066EFCE
:1013360094E8EE9403501A906749E0908800F09084
:10134600674AE0908800F090674BE0908800F08054
:101356003BC3EF94AEEE9408501A90674AE090882B
:1013660000F090674BE0908800F0906749E0908825
:1013760000F0801890674BE0908800F0906749E095
:10138600908800F090674AE0908800F074032FFF81
:10139600E43EFE808DE4908800F0F0F0F0D28130DB
:1013A60083FDC28112173D906745E004F0700690F8
:0813B6006744E004F00212811B
:0113BE00220C
:1007DA007B017A6279A49067387401F07D027C000B
:1007EA007F291213BF7B017A6279A6906738740158
:1007FA00F07D047C007F291213BF7B017A6279AAFB
:10080A009067387401F07D027C007F291213BF7B48
:10081A00017A6279AC9067387401F07D067C007FBA
:10082A00291213BF7B017A6279B29067387401F09A
:10083A007D087C007F291213BF7B017A6279BA9006
:10084A0067387401F07D087C007F291213BF7B0191
:10085A007A6279C29067387401F07D087C007F293A
:10086A001213BF7B017A6279CA9067387401F07DEE
:10087A00037C007F291213BF7B017A6279CD9067CE
:10088A00387401F07D037C007F291213BF7B017A43
:10089A006679909067387401F07D037C007F291295
:1008AA0013BF7B017A6079009067387401F07D028A
:1008BA007C007F291213BF7B017A60791690673812
:1008CA007401F07D027C007F291213BF7B017A60DC
:1008DA00795B9067387401F07D2E7C007F291213B2
:1008EA00BF7B017A6079B19067387401F07D187C1A
:1008FA00007F291213BF7B017A6079D6906738741A
:10090A0001F07D3F7C007F291213BF7B017A617958
:10091A00439067387401F07D157C007F291213BF5C
:10092A007B017A6179969067387401F07D087C00C2
:10093A007F291213BF7B017A6179A6906738740107
:10094A00F07D407C007F291213BF7B017A6179FF19
:10095A009067387401F07D277C007F291213BF7BD2
:10096A00017A6279319067387401F07D387C007FB2
:10097A00291213BF7B017A6079029067387401F0FB
:10098A007D147C007F291213BF7B017A60792F9036
:10099A0067387401F07D2C7C007F291213BF7B011C
:1009AA007A6079959067387401F07D1C7C007F2904
:1009BA001213BF7B017A6079D49067387401F07D95
:1009CA00027C007F291213BF7B017A61791C906730
:1009DA00387401F07D277C007F291213BF7B017ACE
:1009EA0061797C9067387401F07D1A7C007F291246
:1009FA0013BF7B017A6179A39067387401F07D0394
:100A0A007C007F291213BF7B017A6179ED906738E8
:100A1A007401F07D127C007F291213BF7B017A6278
:100A2A00792F9067387401F07D027C007F291213B8
:100A3A00BF7B017A6279719067387401F07D207CFE
:100A4A00007F291213BF7B017A6079189067387486
:100A5A0001F07D177C007F291213BF7B017A607930
:100A6A008D9067387401F07D087C007F291213BFCE
:100A7A007B017A6079CC9067387401F07D087C003C
:100A8A007F291213BF7B017A61791A906738740142
:100A9A00F07D027C007F291213BF7B017A61795AAB
:100AAA009067387401F07D227C007F291213BF7B86
:100ABA00017A6179A09067387401F07D037C007F28
:100ACA00291213BF7B017A6179E89067387401F0C3
:100ADA007D057C007F291213BF7B017A62792A90F7
:100AEA0067387401F07D057C007F291213BF7B01F2
:100AFA007A62796B9067387401F07D067C007F29F1
:100B0A001213BF7B017A6279919067387401F07D84
:100B1A00027C007F291213BF7B017A607989906772
:100B2A00387401F07D047C007F291213BF7B017A9F
:100B3A006079C99067387401F07D037C007F2912BF
:100B4A0013BF7B017A6179159067387401F07D05CE
:100B5A007C007F291213BF7B017A6179589067382C
:100B6A007401F07D027C007F291213BF7B017A6138
:100B7A00799E9067387401F07D027C007F291213F8
:100B8A00BF7B017A6179E69067387401F07D027C57
:100B9A00007F291213BF7B017A6279289067387423
:100BAA0001F07D027C007F391213BF7B017A6279E2
:100BBA00699067387401F07D027C007F391213BF97
:100BCA007B017A6279939067387401F07D057C0025
:100BDA007F391213BF7B017A62799A906738740160
:100BEA00F07D057C007F391213BF7B017A62799F01
:100BFA009067387401F07D057C007F391213BF7B42
:100C0A00017A627926E4906738F07D02FC7F05124A
:100C1A0013BF7B017A627998E4906738F07D02FC11
:060C2A007F051213BF223A
:1016AF00E4906732F0906733E0FFC394045036EF55
:1016BF0025E025E02413F582E43467F583E0FCA3ED
:1016CF00E0FDA3E0FEA3E0FFE4FBFAF9F8D312116B
:1016DF00CA500A906733E0906732F0800890673302
:0E16EF00E004F080C0906732E0FFE4FCFDFEF6
:0116FD0022CA
:0F17890090669BE0FCA3E0FDA3E0FEA3E0FF223F
:10160A001216AF90671375F004EF121232EE25E04E
:10161A0025E02583F583E0FCA3E0FDA3E0FEA3E03B
:10162A00FFE47BE47A0CF9F81210ADE47B50FAF986
:10163A00F8121138EF7802C333CE33CED8F924909A
:10164A00F58274623EF583E0FCA3E0FDA3E0FEA30D
:02165A00E0FFAF
:01165C00226B
:0216FE00A9073A
:10170000E9FEED7583002400FFE5833E906736F027
:10171000A3EFF0EBFE906735E07583002400FFE552
:10172000833E906738F0A3EFF090629BE9F0A3ED61
:0C173000F0A3EBF0906735E090629EF0B3
:01173C00228A
:10158B00EFFE7C00E42DFFEC3E906736F0A3EFF00E
:10159B00EBFE906735E02400FFEC3E906738F0A33C
:1015AB00EFF0906736E0FAA3E0FB7C007D25FFAE01
:1015BB0002121058C3EB9FFFEA9E906736F0A3EF21
:1015CB00F0A3E0FAA3E0FB7C007D25FFAE02121036
:1015DB0058C3EB9FFFEA9E906738F0A3EFF090673C
:1015EB0036E0FCA3E0FDEC9062A0F0A3EDF0906779
:0E15FB0038E0FCA3E0FDEC9062A2F0A3EDF05E
:0116090022BE
:100C3000E4906727F0758E5575950490880CF090B8
:100C40008803F0D2AFC2A8C2AAF590D285C281C2F1
:100C500080C282C287908801F07B017A8079007F10
:100C600003FEFDFC1217B47A8079047F017E007DBB
:100C7000007C001217B47A8079087F647E007D00C2
:100C80007C001217B47A80790C7F217E007D007C75
:100C9000001217B47A8079107F1E7E007D007C00E0
:100CA0001217B47A8079147F017E007D007C0012D7
:100CB00017B47A8079187F007E007D007C001217BF
:100CC000B47A80791C7F007E007D007C001217B40E
:100CD0007A8079207F007E007D007C001217B47A34
:100CE0008079247F007E007D007C001217B47A801A
:100CF00079287FC87E007D007C001217B47A827943
:100D0000007F387E047D007C001217B47A8279045B
:100D10007FF07E007D007C001217B47A8279087F14
:100D2000057E007D007C001217B47A82790C7F0367
:100D30007E007D007C001217B47A8279107F017EDC
:100D4000007D007C001217B47A8279147F017E0046
:100D50007D007C001217B47A8279187F007E007DB6
:100D6000007C001217B47A82791C7F0A7E007D0015
:100D70007C001217B47A8279207F0A7E007D007C85
:100D8000001217B47A8279247F027E007D007C00F5
:100D90001217B47A8279287F007E007D007C0012D1
:100DA00017B47A82792C7F0A7E007D007C001217AE
:100DB000B47A8279307F147E007D007C001217B4F3
:100DC0007A8279347F017E007D007C001217B47A2C
:100DD0008279387F007E007D007C001217B47A8211
:100DE000793C7F707E087D007C001217B47A82798E
:100DF000407F007E007D007C001217B47A8379006A
:100E00007F017E007D007C001217B47A8379047F15
:100E1000007E007D007C001217B47A8379087F1968
:100E20007E007D007C001217B47A83790C7F3C7EB3
:100E3000007D007C001217B47A8379107F0D7E004C
:100E40007D007C001217B47A8379147F0D7E007DBB
:100E5000007C001217B41217897A8379181217B41C
:100E600012160A7B017A83791C1217B41216AF7B13
:100E7000017A8379201217B49088017401F07A8482
:100E800079007F037E007D007C001217B47A84799C
:100E9000047F007E007D007C001217B47A847908FC
:100EA0007F007E007D007C001217B47A84790C7F6D
:100EB000007E007D007C001217B47A8479107F00D8
:100EC0007E007D007C001217B47A8479147F007E46
:100ED000007D007C001217B47A8479187F007E00B0
:100EE0007D007C001217B47A84791C7F007E007D1F
:100EF000007C001217B47A8479207F007E007D0088
:100F00007C001217B47A8479247F007E007D007CF7
:100F1000001217B47A8479287F007E007D007C005F
:100F20001217B47A84792C7F017E007D007C001238
:100F300017B47A8679807F077E007D007C001217C7
:100F4000B47A8679847F107E007D007C001217B40D
:100F50009088027401F012173DD2823084FD7F0127
:100F60007E007D007C001214671207DA7F017E008C
:100F70007D007C00121467E4FF12176FD280908806
:100F800003E0B401F990880C7401F0C280908805E8
:100F9000E0FF908804E0FD908807E0FB908806E081
:100FA000906735F01216FE908809E0FF908808E0FF
:100FB000FD90880BE0FB90880AE0906735F01215F1
:100FC0008B7F017E007D007C0012165D7B017A62C2
:100FD000799A9067387401F07D057C007F3912138F
:100FE000BF7B017A62799F9067387401F07D057C40
:100FF000007F391213BF7F017E007D007C00121636
:101000005DE490880CF0908803E070FAD280020FC3
:011010007E61
:0110110022BC
:10150B00020C30E493A3F8E493A34003F68001F2BA
:10151B0008DFF48029E493A3F85407240CC8C333E1
:10152B00C4540F4420C8834004F456800146F6DFB0
:10153B00E4800B0102040810204080900003E47E3D
:10154B00019360BCA3FF543F30E509541FFEE493A5
:10155B00A360010ECF54C025E060A840B8E493A36C
:10156B00FAE493A3F8E493A3C8C582C8CAC583CA97
:10157B00F0A3C8C582C8CAC583CADFE9DEE780BE4F
:0107D900001F
:10101200BB010689828A83E0225002E722BBFE02DC
:09102200E32289828A83E493220F
:10102B00BB010CE58229F582E5833AF583E022507A
:10103B0006E92582F8E622BBFE06E92582F8E222C4
:0D104B00E58229F582E5833AF583E49322DE
:10105800BC000BBE0029EF8DF084FFADF022E4CC7C
:10106800F875F008EF2FFFEE33FEEC33FCEE9DEC45
:10107800984005FCEE9DFE0FD5F0E9E4CEFD22ED8B
:10108800F8F5F0EE8420D21CFEADF075F008EF2FD5
:10109800FFED33FD4007985006D5F0F222C398FDC6
:0510A8000FD5F0EA2263
:1010AD00E88FF0A4CC8BF0A42CFCE98EF0A42CFCE2
:1010BD008AF0EDA42CFCEA8EF0A4CDA8F08BF0A460
:1010CD002DCC3825F0FDE98FF0A42CCD35F0FCEBBF
:1010DD008EF0A4FEA9F0EB8FF0A4CFC5F02ECD3984
:0F10ED00FEE43CFCEAA42DCE35F0FDE43CFC22F1
:1010FC0075F008758200EF2FFFEE33FECD33CDCCAB
:10110C0033CCC58233C5829BED9AEC99E58298402D
:10111C000CF582EE9BFEED9AFDEC99FC0FD5F0D60A
:10112C00E4CEFBE4CDFAE4CCF9A88222B800C1B934
:10113C000059BA002DEC8BF084CFCECDFCE5F0CB72
:10114C00F97818EF2FFFEE33FEED33FDEC33FCEBAB
:10115C0033FB10D703994004EB99FB0FD8E5E4F966
:10116C00FA227818EF2FFFEE33FEED33FDEC33FC53
:10117C00C933C910D7059BE99A4007EC9BFCE99A47
:10118C00F90FD8E0E4C9FAE4CCFB2275F010EF2F8C
:10119C00FFEE33FEED33FDCC33CCC833C810D7078C
:1011AC009BEC9AE899400AED9BFDEC9AFCE899F8C7
:0E11BC000FD5F0DAE4CDFBE4CCFAE4C8F9225A
:1011CA00EB9FF5F0EA9E42F0E99D42F0E89C45F07B
:0111DA0022F2
:1011DB00BB010789828A830211F55005E9F80212D7
:0A11EB003EBBFE05E9F802124A229D
:0C11F500ECF0A3EDF0A3EEF0A3EFF0226D
:10120100A8828583F0D083D082121218121218128C
:101211001218121218E473E493A3C583C5F0C583B1
:10122100C8C582C8F0A3C583C5F0C583C8C582C837
:01123100229A
:0C123200A42582F582E5F03583F58322C7
:0C123E00ECF608EDF608EEF608EFF622DC
:0C124A00ECF208EDF208EEF208EFF222E0
:00000001FF
