:03000000020E6984
:0C0E690078FFE4F6D8FD758107020EB09A
:1000030063C0603C000000E0000000E1000000E28B
:10001300000000E3000000E4000000E5000000E64B
:10002300000000E7000000E8000000E9000000EA2B
:10003300000000EB000000EC000000ED000000EE0B
:10004300000000EF000000C0000000C1000000C27B
:10005300000000C3000000C4000000C5000000C68B
:10006300000000C7000000C8000000C9000000CA6B
:10007300000000CB000000CC000000CD000000CE4B
:10008300000000CF000000D0000000D1000000D22B
:10009300000000D3000000D4000000D5000000D60B
:1000A300000000D7000000D8000000D9000000DAEB
:1000B300000000DB000000DC000000DD000000DECB
:1000C300000000DF000000800000008100000082CB
:1000D300000000830000008400000085000000860B
:1000E3000000008700000088000000890000008AEB
:1000F3000000008B0000008C0000008D0000008ECB
:100103000000008F000000900000009100000092AA
:10011300000000930000009400000095000000968A
:100123000000009700000098000000990000009A6A
:100133000000009B0000009C0000009D0000009E4A
:100143000000009F000000A0000000A1000000A22A
:10015300000000A3000000A4000000A5000000A60A
:10016300000000A7000000A8000000A9000000AAEA
:10017300000000AB000000AC000000AD000000AECA
:10018300000000AF000000B0000000B1000000B2AA
:10019300000000B3000000B4000000B5000000B68A
:1001A300000000B7000000B8000000B9000000BA6A
:1001B300000000BB000000BC000000BD000000BE4A
:1001C300000000BF0000000000000001000000026A
:1001D300000000030000000400000005000000060A
:1001E3000000000700000008000000090000000AEA
:1001F3000000000B0000000C0000000D0000000ECA
:100203000000000F000000100000001100000012A9
:100213000000001300000014000000150000001689
:100223000000001700000018000000190000001A69
:100233000000001B0000001C0000001D0000001E49
:100243000000001F00000020000000210000002229
:100253000000002300000024000000250000002609
:100263000000002700000028000000290000002AE9
:100273000000002B0000002C0000002D0000002EC9
:100283000000002F000000300000003100000032A9
:100293000000003300000034000000350000003689
:1002A3000000003700000038000000390000003A69
:1002B3000000003B0000003C0000003D0000003E49
:1002C3000000003F00000040000000410000004229
:1002D3000000004300000044000000450000004609
:1002E3000000004700000048000000490000004AE9
:1002F3000000004B0000004C0000004D0000004EC9
:100303000000004F000000500000005100000052A8
:100313000000005300000054000000550000005688
:100323000000005700000058000000590000005A68
:100333000000005B0000005C0000005D0000005E48
:100343000000005F00000060000000610000006228
:100353000000006300000064000000650000006608
:100363000000006700000068000000690000006AE8
:100373000000006B0000006C0000006D0000006EC8
:100383000000006F000000700000007100000072A8
:100393000000007300000074000000750000007688
:1003A3000000007700000078000000790000007A68
:1003B3000000007B0000007C0000007D0000007E48
:1003C3000000007F608063FF0000001F000000004A
:1003D30000000010000000180000001C0000000EC8
:1003E30000000007000000130000000900000004E3
:1003F30000000002000000110000000800000014CB
:100403000000000A000000150000001A0000001D93
:100413000000001E0000000F000000170000001B7A
:100423000000000D000000160000000B0000000596
:1004330000000012000000190000000C000000067C
:10044300000000030000000150647F000000010071
:100453000000020000000400000008426010B00029
:10046300446012B3000006426016B400466018B63A
:1004730033DB80020048601EB8573D191E0A5050F6
:10048300486026B96F3D283C14C8C848602EBAB5E9
:1004930033416423A0A0436036BB1414436039BCCA
:1004A30037324363FCBD6432426000BE04456006DC
:1004B3002A0000043745600B2B0000086F426002DE
:0704C3001100426004290052
:04111C00120A76221B
:060FC5009064A8120A90DE
:100FCB009064AC120A9C000000009064A8E0FCA3A3
:100FDB00E0FDA3E0FEA3E0FFA3E0F8A3E0F9A3E0AC
:100FEB00FAA3E0FBC3120A6550219064ACE0FCA3AA
:100FFB00E0FDA3E0FEA3E02401FFE43EFEE43DFDA3
:0B100B00E43CFC9064AC120A9080BF33
:0110160022B7
:060DD10090649E120A90DE
:100DD7009064A2120A9C0000000090649EE0FCA3AD
:100DE700E0FDA3E0FEA3E0FFA3E0F8A3E0F9A3E0A2
:100DF700FAA3E0FBC3120A6550679064A6120A9C27
:100E070000000000E47FA7FEFDFC9064A6E0F8A3C5
:100E1700E0F9A3E0FAA3E0FBC3120A65502190644E
:100E2700A6E0FCA3E0FDA3E0FEA3E02401FFE43E6F
:100E3700FEE43DFDE43CFC9064A6120A9080C59058
:100E470064A2E0FCA3E0FDA3E0FEA3E02401FFE42D
:100E57003EFEE43DFDE43CFC9064A2120A90020DC4
:010E6700E1A9
:010E68002267
:1010A500908802E09064A7F0E054FBF0908802F08D
:1010B5007F017E007D007C00120FC59064A7E0448F
:1010C50004F0908802F07F017E007D007C00120F05
:0110D500C555
:0110D60022F7
:0D110000908802E0FF54F7FFF04408FFF074
:01110D0022BF
:0D110E00908802E0FF54EFFFF04410FFF066
:01111B0022B1
:1010D700908802E0FEEF6006EE4402FE8004EE54C4
:0910E700FDFEAF06908802EEF058
:0110F00022DD
:100D290090649EEFF0A3ECF0A3EDF0A3EBF0A3EA3F
:040D3900F0A3E9F04A
:100D3D001210A590649EE0908800F09064A4E0608D
:100D4D004D90649FE0FEA3E0FD908800F0EEFDF075
:100D5D00E4F0FFFED39064A0E09F90649FE09E407E
:100D6D001D9064A1E0FBA3E0FAA3E0F98F828E83CE
:100D7D001208C6908800F00FBF00010E80D6E490D7
:100D8D008800F0F0F0F0D2813083FDC281229064B2
:100D9D00A1E0FBA3E0FAA3E0F91208AD908800F002
:100DAD0090649FE07004A3E06402700A9000011249
:100DBD0008C6908800F0E4908800F0F0D28130836E
:030DCD00FDC281E3
:010DD0002200
:100AF100E49064B4F07F011210D71210A59064B88D
:100B0100740CF0A374A8F024019064B3F0E4340CE5
:100B11009064B2F0E49064B0F0A3F09064B0E0FEB1
:100B2100A3E0FFC39470EE94084003020C59C3EF95
:100B3100941CEE94025012E49064B5F09064B77482
:100B4100FFF0E49064B6F08042C3EF9438EE940471
:100B51005011E49064B5F09064B7F09064B674FFFE
:100B6100F08028C3EF9454EE940650109064B5744D
:100B7100FFF09064B7F09064B6F0800F9064B574A4
:100B8100FFF0E49064B7F09064B6F01210A590887D
:100B9100007439F09064B2E0FEA3E0FD908800F0AB
:100BA100EEFDF0E4F09064B4E06008908800743CDD
:100BB100F0800C908800742CF09064B47401F0E41F
:100BC100FFFED39064B9E09F9064B8E09E4066EF69
:100BD10094E8EE9403501A9064B5E0908800F09088
:100BE10064B6E0908800F09064B7E0908800F080EF
:100BF1003BC3EF94AEEE9408501A9064B6E090882F
:100C010000F09064B7E0908800F09064B5E09088BF
:100C110000F080189064B7E0908800F09064B5E02F
:100C2100908800F09064B6E0908800F074032FFF84
:100C3100E43EFE808DE4908800F0F0F0F0D2813047
:100C410083FDC2811210A59064B1E004F07006909A
:080C510064B0E004F0020B1C8A
:010C59002278
:100C5A007B017A6079109064A47401F07D027C00B3
:100C6A007F29120D297B017A6079129064A474019C
:100C7A00F07D047C007F29120D297B017A607916A8
:100C8A009064A47401F07D027C007F29120D297BF7
:100C9A00017A6079189064A47401F07D067C007F63
:100CAA0029120D297B017A60791E9064A47401F0DF
:100CBA007D087C007F29120D297B017A60792690B4
:100CCA0064A47401F07D087C007F29120D297B0140
:100CDA007A6079069064A47401F07D057C007F39FE
:100CEA00120D297B017A60790B9064A47401F07D5E
:100CFA00057C007F39120D297B017A607902E49024
:100D0A0064A4F07D02FC7F05120D297B017A6079CB
:0F0D1A0004E49064A4F07D02FC7F05120D2922F1
:10101700E490649EF090649FE0FFC394045036EF21
:1010270025E025E0247FF582E43464F583E0FCA322
:10103700E0FDA3E0FEA3E0FFE4FBFAF9F8D3120A10
:1010470065500A90649FE090649EF0800890649FCA
:0E105700E004F080C090649EE0FFE4FCFDFE2B
:011065002268
:0F10F100906407E0FCA3E0FDA3E0FEA3E0FF2274
:100F720012101790647F75F004EF120ACDEE25E08F
:100F820025E02583F583E0FCA3E0FDA3E0FEA3E0DA
:100F9200FFE47BE47A0CF9F8120948E47B50FAF991
:100FA200F81209D3EF7802C333CE33CED8F924FC3A
:100FB200F582745F3EF583E0FCA3E0FDA3E0FEA3AF
:020FC200E0FF4E
:010FC400220A
:02106600A907D8
:10106800E9FEED7583002400FFE5833E9064A2F05D
:10107800A3EFF0EBFE9064A1E07583002400FFE588
:10108800833E9064A4F0A3EFF0906007E9F0A3ED2D
:0C109800F0A3EBF09064A1E090600AF07F
:0110A4002229
:100EF500EFFE7C00E42DFFEC3E9064A2F0A3EFF042
:100F0500EBFE9064A1E02400FFEC3E9064A4F0A306
:100F1500EFF09064A2E0FAA3E0FB7D25FFAE02129C
:100F250008F3C3EB9FFFEA9E9064A2F0A3EFF0A342
:100F3500E0FAA3E0FB7C007D25FFAE021208F3C3B7
:100F4500EB9FFFEA9E9064A4F0A3EFF09064A2E00B
:100F5500FCA3E0FDEC90600CF0A3EDF09064A4E040
:0C0F6500FCA3E0FDEC90600EF0A3EDF0AA
:010F7100225D
:1004CB00E4906493F0758E5575950490880CF090BC
:1004DB008803F0D2AFC2A8C2AAF590D285C281C25E
:1004EB0080C282C287908801F07B017A8079007F7D
:1004FB0003FEFDFC12111C7A8079047F017E007DC6
:10050B00007C0012111C7A8079087F647E007D00CC
:10051B007C0012111C7A80790C7F217E007D007C7F
:10052B000012111C7A8079107F1E7E007D007C00EA
:10053B0012111C7A8079147F017E007D007C0012E1
:10054B00111C7A8079187F007E007D007C001211CF
:10055B001C7A80791C7F007E007D007C0012111CB0
:10056B007A8079207F007E007D007C0012111C7A3E
:10057B008079247F007E007D007C0012111C7A8024
:10058B0079287FC87E007D007C0012111C7A82794D
:10059B00007F387E047D007C0012111C7A82790466
:1005AB007FF07E007D007C0012111C7A8279087F1F
:1005BB00057E007D007C0012111C7A82790C7F0372
:1005CB007E007D007C0012111C7A8279107F017EE7
:1005DB00007D007C0012111C7A8279147F017E0051
:1005EB007D007C0012111C7A8279187F007E007DC1
:1005FB00007C0012111C7A82791C7F0A7E007D0020
:10060B007C0012111C7A8279207F0A7E007D007C8F
:10061B000012111C7A8279247F027E007D007C00FF
:10062B0012111C7A8279287F007E007D007C0012DB
:10063B00111C7A82792C7F0A7E007D007C001211BE
:10064B001C7A8279307F147E007D007C0012111C95
:10065B007A8279347F017E007D007C0012111C7A36
:10066B008279387F007E007D007C0012111C7A821B
:10067B00793C7F707E087D007C0012111C7A827998
:10068B00407F007E007D007C0012111C7A83790074
:10069B007F017E007D007C0012111C7A8379047F20
:1006AB00007E007D007C0012111C7A8379087F1973
:1006BB007E007D007C0012111C7A83790C7F3C7EBE
:1006CB00007D007C0012111C7A8379107F0D7E0057
:1006DB007D007C0012111C7A8379147F0D7E007DC6
:1006EB00007C0012111C1210F17A83791812111C64
:1006FB00120F727B017A83791C12111C1210177B5B
:10070B00017A83792012111C9088017401F07A848C
:10071B0079007F037E007D007C0012111C7A8479A6
:10072B00047F007E007D007C0012111C7A84790806
:10073B007F007E007D007C0012111C7A84790C7F77
:10074B00007E007D007C0012111C7A8479107F00E2
:10075B007E007D007C0012111C7A8479147F007E50
:10076B00007D007C0012111C7A8479187F007E00BA
:10077B007D007C0012111C7A84791C7F007E007D29
:10078B00007C0012111C7A8479207F007E007D0092
:10079B007C0012111C7A8479247F007E007D007C02
:1007AB000012111C7A8479287F007E007D007C006A
:1007BB0012111C7A84792C7F017E007D007C001243
:1007CB00111C7A8679807F077E007D007C001211D8
:1007DB001C7A8679847F107E007D007C0012111CB0
:1007EB009088027401F01210A5D2823084FD7F0133
:1007FB007E007D007C00120DD1120C5A7F017E0011
:10080B007D007C00120DD1E4FF1210D7D2809088AE
:10081B0003E0B401F990880C7401F0C28090880554
:10082B00E0FF908804E0FD908807E0FB908806E0ED
:10083B009064A1F0121066908809E0FF908808E0A0
:10084B00FD90880BE0FB90880AE09064A1F0120EFB
:10085B00F57F017E007D007C00120FC57B017A6065
:10086B0079069064A47401F07D057C007F39120D2C
:10087B00297B017A60790B9064A47401F07D057C6F
:10088B00007F39120D297F017E007D007C00120F45
:10089B00C5E490880CF0908803E070FAD2800208CF
:0108AB001933
:0108AC002229
:100E75000204CBE493A3F8E493A34003F68001F2C4
:100E850008DFF48029E493A3F85407240CC8C3337E
:100E9500C4540F4420C8834004F456800146F6DF4D
:100EA500E4800B0102040810204080900003E47EDA
:100EB500019360BCA3FF543F30E509541FFEE49342
:100EC500A360010ECF54C025E060A840B8E493A309
:100ED500FAE493A3F8E493A3C8C582C8CAC583CA34
:100EE500F0A3C8C582C8CAC583CADFE9DEE780BEEC
:0104CA000031
:1008AD00BB010689828A83E0225002E722BBFE0249
:0908BD00E32289828A83E493227C
:1008C600BB010CE58229F582E5833AF583E02250E7
:1008D60006E92582F8E622BBFE06E92582F8E22231
:0D08E600E58229F582E5833AF583E493224B
:1008F300BC000BBE0029EF8DF084FFADF022E4CCE9
:10090300F875F008EF2FFFEE33FEEC33FCEE9DECB1
:10091300984005FCEE9DFE0FD5F0E9E4CEFD22EDF7
:10092300F8F5F0EE8420D21CFEADF075F008EF2F41
:10093300FFED33FD4007985006D5F0F222C398FD32
:050943000FD5F0EA22CF
:10094800E88FF0A4CC8BF0A42CFCE98EF0A42CFC4E
:100958008AF0EDA42CFCEA8EF0A4CDA8F08BF0A4CC
:100968002DCC3825F0FDE98FF0A42CCD35F0FCEB2B
:100978008EF0A4FEA9F0EB8FF0A4CFC5F02ECD39F0
:0F098800FEE43CFCEAA42DCE35F0FDE43CFC225D
:1009970075F008758200EF2FFFEE33FECD33CDCC17
:1009A70033CCC58233C5829BED9AEC99E58298409A
:1009B7000CF582EE9BFEED9AFDEC99FC0FD5F0D677
:1009C700E4CEFBE4CDFAE4CCF9A88222B800C1B9A1
:1009D7000059BA002DEC8BF084CFCECDFCE5F0CBDF
:1009E700F97818EF2FFFEE33FEED33FDEC33FCEB18
:1009F70033FB10D703994004EB99FB0FD8E5E4F9D3
:100A0700FA227818EF2FFFEE33FEED33FDEC33FCBF
:100A1700C933C910D7059BE99A4007EC9BFCE99AB3
:100A2700F90FD8E0E4C9FAE4CCFB2275F010EF2FF8
:100A3700FFEE33FEED33FDCC33CCC833C810D707F8
:100A47009BEC9AE899400AED9BFDEC9AFCE899F833
:0E0A57000FD5F0DAE4CDFBE4CCFAE4C8F922C6
:100A6500EB9FF5F0EA9E42F0E99D42F0E89C45F0E7
:010A7500225E
:100A7600BB010789828A83020A905005E9F8020AB7
:0A0A8600D9BBFE05E9F8020AE522DB
:0C0A9000ECF0A3EDF0A3EEF0A3EFF022D9
:100A9C00A8828583F0D083D082120AB3120AB312D3
:100AAC000AB3120AB3E473E493A3C583C5F0C583F8
:100ABC00C8C582C8F0A3C583C5F0C583C8C582C8A4
:010ACC002207
:0C0ACD00A42582F582E5F03583F5832234
:0C0AD900ECF608EDF608EEF608EFF62249
:0C0AE500ECF208EDF208EEF208EFF2224D
:00000001FF
